f:100000000C9496020C94BE020C94BE020C94BE0298
:100010000C94BE020C94BE020C94BE020C94BE0260
:100020000C94BE020C94BE020C94BE020C94BE0250
:100030000C94BE020C94BE020C94BE020C94BE0240
:100040000C94B4040C94BE020C9482040C945C04D2
:100050000C94BE020C94BE020C94BE020C94BE0220
:100060000C94FE040C94BE020C94BE020C94BE02CE
:100070000C94BE020C94BE020C94BE020C94BE0200
:100080000C94BE020C94BE020C94BE020C94BE02F0
:100090000C94BE020C94BE020C94BE020C94BE02E0
:1000A0000C94BE020C94BE020C94BE020C94BE02D0
:1000B0000C94BE027800AED580A83FD300408D14CA
:1000C0002000A1C8DA12D9F1DB40A4A6AF000000DD
:1000D0000000000000000000000000000000000020
:1000E0000000000000000000000000000000000010
:1000F0000000000000000000000000000000000000
:1001000000000000000000000000000000000000EF
:1001100000000000000000000000000000000000DF
:1001200000000000000000000000000000000000CF
:1001300000000000000000000000000000000000BF
:100140000000000000000000000000000008002A7D
:100150000008000008000008002A0008000008004D
:100160000008002A0008000008000008002A000813
:10017000000008000008002A00080000080000082D
:10018000002A0008000008000008002A00080000FB
:1001900008000008002A0008000008000008002AE3
:1001A0000008000008000008002A000800000800FD
:1001B0000008002A0008000008000008002A0008C3
:1001C000000008000008002A08002E2A3A2000A992
:1001D000002000002000002000A9002000002000D6
:1001E000002000A9002000002000002000A900201D
:1001F00000002000002000A90020000020000020B6
:1002000000A9002000002000002000A9002000001C
:100210002000002000A9002000002000002000A9EC
:10022000002000002000002000A900200000200085
:10023000002000A9002000002000002000A90020CC
:1002400000002000002000A920003820F88000A431
:10025000008000008000008000A40080000080007A
:10026000008000A4008000008000008000A40080C6
:1002700000008000008000A400800000800000805A
:1002800000A4008000008000008000A40080000026
:100290008000008000A4008000008000008000A496
:1002A000008000008000008000A40080000080002A
:1002B000008000A4008000008000008000A4008076
:1002C00000008000008000A4800020A06000009258
:1002D000000000000000000000920000000000008C
:1002E00000000092000000000000000000920000EA
:1002F000000000000000009200000000000000006C
:1003000000920000000000000000009200000000C9
:1003100000000000009200000000000000000092B9
:10032000000000000000000000920000000000003B
:100330000000009200000000000000000092000099
:100340000000000000000092000082828302004A48
:100350000002000002000002004A00020000020049
:100360000002004A0002000002000002004A0002EF
:10037000000002000002004A000200000200000229
:10038000004A0002000002000002004A00020000D1
:1003900002000002004A0002000002000002004ABF
:1003A0000002000002000002004A000200000200F9
:1003B0000002004A0002000002000002004A00029F
:1003C000000002000002004A02000E0A0B08002A88
:1003D0000008000008000008002A000800000800CB
:1003E0000008002A0008000008000008002A000891
:1003F000000008000008002A0008000008000008AB
:10040000002A0008000008000008002A0008000078
:1004100008000008002A0008000008000008002A60
:100420000008000008000008002A0008000008007A
:100430000008002A0008000008000008002A000840
:10044000000008000008002A0800243E202000A91F
:10045000002000002000002000A900200000200053
:10046000002000A9002000002000002000A900209A
:1004700000002000002000A9002000002000002033
:1004800000A9002000002000002000A9002000009A
:100490002000002000A9002000002000002000A96A
:1004A000002000002000002000A900200000200003
:1004B000002000A9002000002000002000A900204A
:1004C00000002000002000A92000F888F8000000AB
:1004D00000250028002B002E00040404040404045A
:1004E00004020202020202030303030303020203E3
:1004F00005050505010204081020408001020408DA
:100500001020010204081020408040010204080A63
:100510000D0E0900030200000405080000000000A1
:1005200000000000000000000000010611241FBEB2
:10053000CFEFD8E0DEBFCDBF11E0A0E0B1E0ECE648
:10054000FCE002C005900D92A632B107D9F721E078
:10055000A6E2B1E001C01D92AC3CB207E1F712E0A7
:10056000C6E9D2E004C02197FE010E942E06C539DB
:10057000D107C9F70E941E050C9434060C940000A4
:1005800090E0FC01E15FFA4F2491FC01EC50FB4F3D
:10059000349187529B4FFC018491882359F1222387
:1005A000D9F022502D30C0F4E22FF0E0E652FD4F9A
:1005B0000C942E061D032103E702FB02EC02EC0261
:1005C000FF02050309030F03EC02130319039091C3
:1005D00080009F7790938000E82FF0E0EE0FFF1FE0
:1005E000E353FB4FA591B4918FB7F894EC913E2B58
:1005F0003C938FBF0895909180009F7DEBCF9091A9
:10060000B0009F779093B000E7CF9091B0009F7DAE
:10061000F9CF909190009F7790939000DDCF9091CB
:1006200090009F7DF9CF9091A0009F779093A000BC
:10063000D3CF9091A0009F7DF9CF94B59F7794BDC3
:10064000CBCF94B59F7DFBCFAF92BF92CF92DF927D
:10065000EF92FF920F931F93CF93DF936C017B0177
:100660008B01040F151FEB015E01AE18BF08C01708
:10067000D10759F06991D601ED91FC910190F0817B
:10068000E02DC6010995892B79F7C501DF91CF913E
:100690001F910F91FF90EF90DF90CF90BF90AF90A0
:1006A0000895FC01538D448D252F30E0842F90E078
:1006B000821B930B541710F0CF960895019708955D
:1006C000FC01918D828D981761F0A28DAE0FBF2F26
:1006D000B11D5D968C91928D9F5F9F73928F90E07C
:1006E00008958FEF9FEF0895FC01918D828D9817EB
:1006F00031F0828DE80FF11D858D90E008958FEF28
:100700009FEF0895FC01918D228D892F90E0805CF0
:100710009F4F821B91098F73992708958FE291E073
:100720000E94820321E0892B09F420E0822F0895A2
:10073000FC01A48DA80FB92FB11DA35ABF4F2C9156
:10074000848D90E001968F739927848FA689B7894D
:100750002C93A089B1898C9180648C93938D848D26
:10076000981306C00288F389E02D80818F7D8083F5
:100770000895EF92FF920F931F93CF93DF93EC01B5
:1007800081E0888F9B8D8C8D981316C0E889F9893C
:10079000808185FF11C0EE89FF896083E889F9892E
:1007A00080818064808381E090E0DF91CF911F9110
:1007B0000F91FF90EF900895F62E0B8D10E00F5FD4
:1007C0001F4F0F731127E02E8C8D8E110CC00FB6AA
:1007D00007FCFACFE889F989808185FFF5CFCE0142
:1007E0000E949803F1CFEB8DEC0FFD2FF11DE35A22
:1007F000FF4FF0820B8FEA89FB8980818062D2CF24
:10080000CF93DF93EC01888D8823B9F0AA89BB8947
:10081000E889F9898C9185FD03C0808186FD0DC032
:100820000FB607FCF7CF8C9185FFF2CF808185FF53
:10083000EDCFCE010E949803E9CFDF91CF910895CB
:1008400080E090E0892B29F00E948E0381110E94A4
:10085000000080E090E0892B49F080E090E0892B57
:1008600029F00E94000081110C94000008953FB708
:10087000F89480912B0190912C01A0912D01B091C1
:100880002E0126B5A89B05C02F3F19F00196A11D8A
:10089000B11D3FBFBA2FA92F982F8827BC01CD01CA
:1008A000620F711D811D911D42E0660F771F881F29
:1008B000991F4A95D1F708951F920F920FB60F9284
:1008C00011242F933F934F935F936F937F938F9355
:1008D0009F93AF93BF93EF93FF938FE291E00E94BA
:1008E0009803FF91EF91BF91AF919F918F917F916D
:1008F0006F915F914F913F912F910F900FBE0F908D
:100900001F9018951F920F920FB60F9211242F93DC
:100910008F939F93EF93FF93E0913F01F0914001FC
:100920008081E0914501F091460182FD1BC09081DC
:10093000809148018F5F8F7320914901821741F0A8
:10094000E0914801F0E0E15DFE4F958F8093480112
:10095000FF91EF919F918F912F910F900FBE0F906C
:100960001F9018958081F4CF1F920F920FB60F92AF
:1009700011242F933F938F939F93AF93BF938091B5
:10098000270190912801A0912901B0912A0130916D
:10099000260123E0230F2D3758F50196A11DB11D27
:1009A000209326018093270190932801A093290189
:1009B000B0932A0180912B0190912C01A0912D01DF
:1009C000B0912E010196A11DB11D80932B01909332
:1009D0002C01A0932D01B0932E01BF91AF919F9157
:1009E0008F913F912F910F900FBE0F901F901895F0
:1009F00026E8230F0296A11DB11DD2CF80910201DE
:100A00009091030197FD19C0E0910001F09101015F
:100A1000CF0101969093010180930001E491E0934E
:100A2000BB0085E88093BC00809102019091030196
:100A3000019790930301809302011895789484B5EF
:100A4000836084BD85B5836085BD80916E008160C3
:100A500080936E0092E0909381008091810081608C
:100A600080938100809180008160809380008091DC
:100A7000B10084608093B1008091B0008160809368
:100A8000B0008091910083608093910080919000EC
:100A90008160809390008091A10083608093A10089
:100AA0008091A00081608093A00087E880937A0005
:100AB0001092C100E0913F01F09140019083E091DC
:100AC0003B01F0913C011082E0913D01F0913E012B
:100AD0008FEC808310924701E0914301F091440133
:100AE00086E08083E0914101F09142018081886934
:100AF0008083E0914101F091420180818F7D80836C
:100B00004BE050E066E171E08FE291E00E94240347
:100B100042E050E062E271E08FE291E00E94240343
:100B20008FE291E00E940004E0914101F0914201C6
:100B3000808187748083809149018093480182E19C
:100B40000E94C00283E10E94C002209A81E080934B
:100B5000B80085EA8093BC00809102019091030166
:100B600097FFFACF0E9437046B017C010E94370483
:100B70006C197D098E099F09683E734081059105B6
:100B8000A8F384E98093BC008091BC0084FDFCCF75
:100B900084EA8093BC008091BC0087FFFCCF88E78B
:100BA0008093BB0084E88093BC008091BC0087FFE9
:100BB000FCCF80E48093BB0084E88093BC00C4E356
:100BC000D2E100E014E08DECE82E80E0F82ED09326
:100BD0007900C09378001093030100930201F09212
:100BE0000101E09200018091BC0081608093BC0013
:100BF0008091020190910301892BD1F70E9420047A
:100C0000E6CFEFE2F1E01382128288EE93E0A0E0FB
:100C1000B0E084839583A683B78388E091E09183D5
:100C2000808385EC90E09587848784EC90E09787BB
:100C3000868780EC90E0918B808B81EC90E0938BA9
:100C4000828B82EC90E0958B848B86EC90E0978B86
:100C5000868B118E128E138E148E0895EE0FFF1F49
:0C0C60000590F491E02D0994F894FFCF6A
:100C6C00B400190000000000B90324035103000470
:100C7C00820360037403535344313330362D54577D
:060C8C0049000D0A000002
:00000001FF
